:020000040800F2
:1000000088070020CD010008750A0008790500085E
:10001000710A0008150300087B12000800000000A8
:10002000000000000000000000000000590D000862
:100030005904000800000000FD0A00086D0E0008C9
:10004000E7010008E7010008E7010008E7010008F0
:10005000E7010008E7010008E7010008E7010008E0
:10006000E7010008E7010008E7010008E7010008D0
:10007000E7010008E7010008E7010008E7010008C0
:10008000E7010008E7010008E7010008E7010008B0
:10009000E7010008E7010008E7010008E7010008A0
:1000A000E7010008E7010008E7010008E701000890
:1000B000E7010008E7010008E7010008E701000880
:1000C000E7010008E7010008E7010008E701000870
:1000D000E7010008E7010008E70100086D0F0008CC
:1000E000E7010008E7010008E7010008E701000850
:1000F000E7010008E7010008E7010008E701000840
:10010000E7010008E7010008E7010008E70100082F
:10011000E7010008E7010008E7010008E70100081F
:10012000E7010008E7010008E7010008E70100080F
:1001300000F002F800F03AF80AA090E8000C8244BF
:100140008344AAF10107DA4501D100F02FF8AFF29C
:10015000090EBAE80F0013F0010F18BFFB1A43F0A5
:10016000010318474813000068130000103A24BF29
:1001700078C878C1FAD8520724BF30C830C144BF0C
:1001800004680C607047000000230024002500264E
:10019000103A28BF78C1FBD8520728BF30C148BFEA
:1001A0000B6070471FB51FBD10B510BD00F06EF895
:1001B0001146FFF7F7FF01F0E1F800F0A0F803B4F3
:1001C000FFF7F2FF03BC01F05AF80000094880472E
:1001D00009480047FEE7FEE7FEE7FEE7FEE7FEE729
:1001E000FEE7FEE7FEE7FEE704480549054A064B41
:1001F00070470000710E00083101000888010020DE
:100200008807002088030020880300207047000032
:100210000FB4044910B503AA029800F009F810BC05
:100220005DF814FB3000002070477047704770473E
:10023000074B70B50D467B4400F011F80446284684
:1002400000F020F810B14FF0FF3070BD204670BDB7
:100250002711000001694A1C02610878704700B547
:100260008FB0CDE901310021059105497944CDE9EF
:1002700003101146684600F02EF80FB000BD0000D4
:10028000E5FFFFFF007B00F080007047754600F03F
:100290003DF8AE4605006946534620F00700854606
:1002A00018B020B5FFF7A0FFBDE820404FF00006D2
:1002B0004FF000074FF000084FF0000B21F007014E
:1002C000AC46ACE8C009ACE8C009ACE8C009ACE891
:1002D000C0098D4670472DE9F04106460024D6E955
:1002E0000170F5688046304603E04146B847641C1B
:1002F0003046A8470028F8D12046BDE8F0810446E2
:10030000AFF300802046FFF75AFF00000048704717
:100310002801002000BFFEE710B54FF47A7000F00E
:10032000D3FF4FF47A7000F0CFFF4FF47A7000F0F3
:10033000CBFF4FF47A7000F0C7FF4FF47A7000F0F3
:10034000C3FF24A0FFF764FF0A2000F063FC01282C
:1003500001D0002010BD4FF47A7000F0B5FF1FA04F
:10036000FFF756FF0A2000F055FC012801D00020BD
:10037000F0E74FF47A7000F0A7FF22A0FFF748FFE4
:100380000A2000F047FC012801D00020E2E74FF4EA
:100390007A7000F099FF22A0FFF73AFF0A2000F0E0
:1003A00039FC012801D00020D4E74FF47A7000F026
:1003B0008BFF1FA0FFF72CFF0A2000F02BFC012869
:1003C00001D00020C6E74FF47A7000F07DFF0120D5
:1003D000C0E70000415445300D0A000041542B4352
:1003E000574A41503D226C6966742D70726F6A6580
:1003F0006374222C226C6162636174313237220D86
:100400000A00000041542B4349505354413D2231CE
:1004100039322E3136382E342E33220D0A000000A8
:1004200041542B4349504D55583D300D0A000000B2
:1004300041542B43495053544152543D225443504C
:10044000222C223139322E3136382E342E31222CC4
:10045000383038380D0A000070472DE9F041024667
:1004600000250026002000230024002791F803C067
:100470000CF00F0591F803C00CF0100CBCF1000F4C
:1004800003D091F802C04CEA050591F800C0BCF118
:10049000000F31D0146800202BE04FF0010C0CFA53
:1004A00000F3B1F800C00CEA03069E4220D183009D
:1004B0004FF00F0C0CFA03F7BC4305FA03FC4CEAAF
:1004C000040491F803C0BCF1280F06D14FF0010CD1
:1004D0000CFA00FCC2F814C00AE091F803C0BCF1A9
:1004E000480F05D14FF0010C0CFA00FCC2F810C007
:1004F000401C0828D1D31460B1F800C0BCF1FF0F34
:1005000034DD546800202EE000F1080C4FF00108A3
:1005100008FA0CF3B1F800C00CEA03069E4221D1A0
:1005200083004FF00F0C0CFA03F7BC4305FA03FCF1
:100530004CEA040491F803C0BCF1280F05D100F186
:10054000080C08FA0CF8C2F8148091F803C0BCF14A
:10055000480F07D100F1080C4FF0010808FA0CF819
:10056000C2F81080401C0828CED35460BDE8F0814A
:10057000416170470161704700BFFEE708B5012186
:10058000102000F0CDFA4FF40050ADF8000010201C
:100590008DF8030002208DF8020069460448FFF739
:1005A0005CFF4FF400510248FFF7E4FF08BD000074
:1005B0000010014038B504466B4602223F216820F6
:1005C00000F0B0F905463DB99DF801009DF8001016
:1005D00040EA012000B22080284638BD10B5002036
:1005E0000E4908600E48006820F070400C49086011
:1005F0000846006840F04050086000200949C1F8F2
:100600009C0100F011F801200449086000F00CF88A
:1006100000200449C1F8980110BD000098812142D2
:10062000000C01400080214210B5022000F072FE53
:1006300010BD000008B50121082000F071FAC020AB
:10064000ADF8000010208DF8030003208DF80200A3
:1006500069460448FFF701FFC0210248FFF78AFFFF
:1006600008BD0000000C014010B500200E490860D4
:100670000E48006820F070400C4908600846006889
:1006800040F04050086001200949C1F89C01FFF783
:10069000CBFF012004490860FFF7C6FF0020044992
:1006A000C1F8980110BD000098812142000C014062
:1006B0000080214270B5054600241648006820F0ED
:1006C0007040144908600846006840F00040086027
:1006D000002614E0002010490860FFF7A5FF012064
:1006E0000E49C1F898016006040E0B487C3800687A
:1006F00008B1601CC4B2FFF797FF701CC6B2082E89
:10070000E8DB15B9FFF7B0FF01E0FFF767FF204610
:1007100070BD0000000C0140988121420080214200
:1007200070B504461248006820F070401049086017
:100730000846006840F04050086000200D490860FD
:10074000002512E0E0090B49091D08606006040E4F
:1007500001200949C1F89801FFF766FF002005490B
:100760000860FFF761FF681CC5B2082DEADB70BDA9
:10077000000C0140988121420080214210B50E48B2
:10078000006820F070400C4908600846006840F09E
:10079000405008600120094908600949C1F89801E2
:1007A000FFF742FF002005490860FFF73DFF0020EA
:1007B0000349C1F8980110BD000C01409C81214201
:1007C0000080214210B50E48006820F070400C49AE
:1007D00008600846006840F0405008600020094961
:1007E00008600949C1F89C01FFF71EFF0120054977
:1007F00008600549C1F89C01FFF716FF10BD000015
:10080000000C0140988121420080214210B5002453
:100810001448006820F070401249086008460068DB
:1008200040F00040086001200F490860FFF7FCFE1F
:1008300001200E49C1F89801FFF7F6FE07E0601CA1
:10084000C4B2FA2C03DDFFF7BDFF012010BD06483E
:10085000803800680028F2D10349091F086000BFF2
:10086000F4E70000000C01409C81214200802142FD
:1008700010B5FFF7DFFE80216B2000F0D7F8642071
:1008800000F022FD00216B2000F0D0F8032000F0E2
:100890008BF8012000F080F8322000F0AAF8002147
:1008A000382000F0C3F800216A2000F0BFF80021D2
:1008B000232000F0BBF88021372000F0B7F8752026
:1008C00000F013F80446682C0BD101216B2000F0D6
:1008D000ADF800216C2000F0A9F8322000F089F872
:1008E00001E0012010BD0020FCE770B50446FFF7D1
:1008F00045FFD020FFF714FFFFF788FF2046FFF7E2
:100900000FFFFFF783FFFFF739FFD120FFF708FF45
:10091000FFF77CFF0020FFF7CDFE0546FFF752FFF3
:10092000284670BD2DE9F04106460F4614461D4687
:10093000FFF724FF002141EA4601C8B2FFF7F0FEAD
:10094000FFF764FF20B1FFF73DFF0120BDE8F08114
:100950003846FFF7E5FEFFF759FFFFF70FFF0121CC
:1009600001EB4601C8B2FFF7DBFEFFF74FFF0DE0DA
:10097000012C04D10020FFF79DFE287003E0012028
:10098000FFF798FE2870601EC4B26D1C002CEFD1DA
:10099000FFF718FF0020D9E710B50446E006010E66
:1009A0001C2000F043F810BD10B50446E006010E0F
:1009B0001B2000F03BF810BD70B504460025BC2C90
:1009C00001DB012510E0622C01DB02250CE02A2C62
:1009D00001DB032508E0142C01DB042504E00A2CCC
:1009E00001DB052500E0062529461A2000F01EF847
:1009F00070BD70B50446B4F57A7F01DD4FF47A74AA
:100A0000042C00DA04244FF47A7090FBF4F0401EBA
:100A1000C5B22946192000F009F80546264604EB20
:100A2000D671C1F34F00FFF7C7FF70BD70B5054623
:100A30000C46FFF7A3FED020FFF772FEFFF7E6FE9D
:100A400018B1FFF7BFFE012070BD2846FFF768FE12
:100A5000FFF7DCFE2046FFF763FEFFF7D7FE18B175
:100A6000FFF7B0FE0120EFE7FFF7ACFE0020EBE759
:100A700000BFFEE77047000070B5002100230F2281
:100A8000C47804B3154C246804F4E064C4F5E0644D
:100A9000210AC1F10403CA40447804FA03F18478BE
:100AA0001440214309010E4C0678A155047804F046
:100AB0001F050124AC4005786D11AD0005F1E0255E
:100AC000C5F8004109E0047804F01F050124AC409A
:100AD000044D0678761145F8264070BD0CED00E017
:100AE00000E400E080E100E002490143024A1160B5
:100AF000704700000000FA050CED00E070470000B0
:100B000029B1064AD2690243044BDA6104E0034A80
:100B1000D2698243014BDA61704700000010024045
:100B200029B1064A92690243044B9A6104E0034AE0
:100B300092698243014B9A617047000000100240A5
:100B400030B500210022002400232D4D6D6805F0F2
:100B50000C0121B1042905D0082923D105E0294D34
:100B6000056022E0274D05601FE0254D6D6805F406
:100B70007012234D6D6805F48034022505EB924216
:100B80001CB9214D554305600BE01D4D6D6805F402
:100B900000351DB11C4D5543056002E0194D55430C
:100BA000056002E0174D056000BF00BF144D6D6881
:100BB00005F0F0010909154D6B5C0568DD404560E5
:100BC0000F4D6D6805F4E061090A104D6B5C4568D6
:100BD000DD4085600A4D6D6805F46051C90A0B4D12
:100BE0006B5C4568DD40C560054D6D6805F44041AE
:100BF000890B074D6B5CC568B5FBF3F5056130BD2E
:100C00000010024000127A0000093D00360000206A
:100C1000460000202DE9F04104464FF47A77A046C3
:100C200000204949086000BF2021484800F058FAD8
:100C30000028F9D080E04648008878434FF0E02152
:100C40004861002088610846006940F001000861A1
:100C500000BF20213D4800F043FA012858D13B480D
:100C600000F006FBC6B23B4837490968465436498E
:100C70000968405C4B2817D133480068012813DB12
:100C800031480068401E3349085C4F280CD14FF0B2
:100C9000E020006920F001004FF0E0210861002011
:100CA00088610120BDE8F0812A4827490968405C35
:100CB000522827D124480068042823DB22480068F2
:100CC000401E2449085C4F281CD11F480068801E24
:100CD000085C522816D11C480068C01E085C5228C7
:100CE00010D119480068001F085C45280AD14FF050
:100CF000E020006920F001004FF0E02108610020B1
:100D00008861CFE7A04610480068401C0E49086083
:100D10004FF0E020056905F0010018B105F48030BE
:100D2000002896D04FF0E020006920F001004FF03D
:100D3000E0210861002088615FEA0800A8F101084D
:100D40007FF479AF00BFADE75000002000480040BD
:100D50005E00002060000020704710B500F002F82F
:100D600010BD00000CB500200190009033480068D1
:100D700040F480303149086000BF3048006800F41A
:100D8000003000900198401C0190009818B901981B
:100D9000B0F5A06FF1D12948006800F4003010B11F
:100DA0000120009001E0002000900098012843D12C
:100DB0002348006840F01000214908600846006898
:100DC00020F0030008600846006840F00200086058
:100DD0001A48406819494860084640684860084613
:100DE000406840F4806048600846406820F47C1009
:100DF00048600846406840F4E810486008460068CB
:100E000040F08070086000BF0C48006800F000707F
:100E10000028F9D00948406820F0030007494860DD
:100E20000846406840F00200486000BF0348406840
:100E300000F00C000828F9D10CBD000000100240A1
:100E400000200240042808D14FF0E021096941F058
:100E500004014FF0E022116107E04FF0E021096941
:100E600021F004014FF0E02211617047704700004B
:100E700010B51348006840F00100114908600846A9
:100E80004068104908400E494860084600680E490D
:100E900008400B4908600846006820F4802008607C
:100EA0000846406820F4FE0048604FF41F00886048
:100EB000FFF753FF4FF000600449086010BD0000C9
:100EC000001002400000FFF8FFFFF6FE08ED00E012
:100ED00010B586B0044601218804FFF711FE0121F8
:100EE0000820FFF71DFE4FF48060ADF814000320CA
:100EF0008DF8160018208DF8170005A91948FFF77E
:100F0000ACFA4FF40060ADF8140004208DF817001F
:100F100005A91448FFF7A1FA27208DF80000022048
:100F20008DF801008DF8020001208DF8030068465D
:100F3000FFF7A2FD01940020ADF80800ADF80A000B
:100F4000ADF80C00ADF810000C20ADF80E0001A9B2
:100F5000054800F021F90121034800F0B5F806B07A
:100F600010BD0000000C014000480040F8B54FF4EF
:100F70007A760A2740F225514C4800F0BEF8002846
:100F800070D0002240F22551484800F0E0F87FE0A0
:100F90004748008870434FF0E02148610020886195
:100FA0000846006940F00100086100BF20213F4869
:100FB00000F096F8012857D13C4800F059F9C5B225
:100FC000522D50D14FF0E020006920F001004FF089
:100FD000E02108610020886136A0FFF719F90A2096
:100FE000FFF718FE012836D10BE020212F4800F032
:100FF00077F8012805D12D4800F03AF93E2800D1B4
:1010000000E0F2E700BF6846FFF7D4FA18BB2DA056
:10101000FFF7FEF8BDF80000C0F307202349091DC3
:10102000088000BF2148008800F040000028F9D067
:10103000BDF80000C0B21D49091D088000BF1B4853
:10104000008800F040000028F9D01DA0FFF7E0F86C
:101050000A20FFF7DFFD012240F22551134800F07E
:1010600076F8F8BD19E00A274FF0E020046904F093
:10107000010018B104F48030002897D04FF0E02030
:10108000006920F001004FF0E02108610020886134
:101090003800A7F101077FF47BAF012240F2255110
:1010A000024800F054F800BFDBE7000000480040B1
:1010B0005E00002041542B43495053454E443D3679
:1010C0000D0A00004F4B000021B1828942F400520A
:1010D000828104E082894DF6FF731A408281704755
:1010E00002460020B1F5007F00D100BF13880B40FD
:1010F0000BB1012000E00020704770B502460024CB
:1011000000230025002040F66A16B14200D100BF3E
:10111000C1F3421501F01F03012606FA03F3012D66
:1011200002D19689334006E0022D02D1168A33405F
:1011300001E0968A33400C12012606FA04F4168860
:10114000344013B10CB1012000E0002070BDF0B5B7
:101150000346002400260025002040F66A17B94205
:1011600000D100BF1846C1F3421401F01F06012749
:1011700007FA06F5012C01D10C3004E0022C01D154
:10118000103000E014301AB107682F43076002E006
:101190000768AF430760F0BD2DE9F04786B005460C
:1011A0000E460024A24600BFA1460027B08900B128
:1011B00000BF2F462C8A4CF6FF700440F088044391
:1011C0002C82AC894EF6F3100440B0883189084374
:1011D000718908430443AC81AC8A4FF6FF40044058
:1011E000B0890443AC8201A8FFF7AAFC1F488742DC
:1011F00002D1DDF810A001E0DDF80CA0A88900F410
:10120000004040B10AEBCA0000EB0A103168490007
:10121000B0FBF1F807E00AEBCA0000EB0A103168F6
:101220008900B0FBF1F86420B8FBF0F0040120095C
:10123000642101FB1089A88900F4004040B13220EC
:1012400000EBC900B0FBF1F000F00700044308E038
:10125000322000EB09106421B0FBF1F000F00F0028
:1012600004432C8106B0BDE8F0870000003801403F
:1012700001468888C0F30800704700BFFEE70146BA
:1012800000BF704710B56FF00400FFF7DBFD0A48A0
:1012900000680A49B0FBF1F0094908700846007877
:1012A00000EB4001C1EBC0104FF6FF7101EAC00036
:1012B0000449088010BD00001800002000127A00C8
:1012C0002C0000202E0000200146114A12884A43BB
:1012D0004FF0E0235A6100229A611A46126942F0E7
:1012E00001021A6100BF4FF0E022106900F0010214
:1012F0001AB100F48032002AF5D04FF0E0221269D2
:1013000022F001024FF0E0231A6100229A61704737
:101310002E0000200146114A12784A434FF0E02384
:101320005A6100229A611A46126942F001021A615A
:1013300000BF4FF0E022106900F001021AB100F482
:101340008032002AF5D04FF0E022126922F001022B
:101350004FF0E0231A6100229A6170472C000020B0
:1013600000BF054A128802F04002002AF9D0C2B23A
:10137000014B1B1D1A80704700480040FFF7FEF824
:101380004FF4A060FFF7B0FBFFF77CFF4FF4612044
:10139000FFF79EFDFFF76CFA19E04FF47A70FFF744
:1013A00093FF4FF47A70FFF78FFF4FF400513748E7
:1013B000FFF7DEF84FF47A70FFF786FF4FF47A708C
:1013C000FFF782FF4FF400513048FFF7D3F8FEF7E4
:1013D000A3FF0028E1D04FF400512C48FFF7C8F8D4
:1013E00052E020212A48FFF77BFE01284CD141031F
:1013F0002648FFF7BFF82648FFF73AFFC4B2522C41
:101400003DD124A0FEF704FF0A20FFF703FC0128CA
:1014100035D10BE020211E48FFF762FE012805D1DF
:101420001B48FFF725FF3E2800D100E0F2E700BF90
:101430001C48FFF7BFF810BB1BA0FEF7E9FE1948D8
:101440000088C0F307201249091D088000BF10481A
:10145000008800F040000028F9D0124800780C49BC
:10146000091D088000BF0A48008800F040000028DD
:10147000F9D00BA0FEF7CCFE0A20FFF7CBFB4FF410
:1014800000510248FFF774F8ABE70000001001407C
:101490000048004041542B43495053454E443D368B
:1014A0000D0A0000140000204F4B0000CC1400086F
:1014B00000000020600000006C0100082C150008EE
:1014C00060000020280700008801000800000000DC
:1014D000000000000000000000000000000000000C
:1014E0000000000000A24A0400000000000000000C
:1014F00001020304060708090000000000000000C4
:1015000000000000000001020304010203040607BA
:1015100008090204060800000000000000000000A6
:0C15200003000000000000000900282368
:04000005080001CD21
:00000001FF
